{
  "contractName": "Cherryswap",
  "abi": [
    {
      "constant": true,
      "inputs": [],
      "name": "cherryToken",
      "outputs": [
        {
          "name": "",
          "type": "address"
        }
      ],
      "payable": false,
      "stateMutability": "view",
      "type": "function"
    },
    {
      "constant": true,
      "inputs": [],
      "name": "swapsCounter",
      "outputs": [
        {
          "name": "",
          "type": "uint256"
        }
      ],
      "payable": false,
      "stateMutability": "view",
      "type": "function"
    },
    {
      "constant": true,
      "inputs": [
        {
          "name": "",
          "type": "uint256"
        }
      ],
      "name": "swapById",
      "outputs": [
        {
          "name": "longPoolSupply",
          "type": "uint256"
        },
        {
          "name": "shortPoolSupply",
          "type": "uint256"
        },
        {
          "name": "participantsCounter",
          "type": "uint256"
        }
      ],
      "payable": false,
      "stateMutability": "view",
      "type": "function"
    },
    {
      "constant": true,
      "inputs": [],
      "name": "swapMath",
      "outputs": [
        {
          "name": "",
          "type": "address"
        }
      ],
      "payable": false,
      "stateMutability": "view",
      "type": "function"
    },
    {
      "constant": true,
      "inputs": [
        {
          "name": "",
          "type": "uint256"
        }
      ],
      "name": "swaps",
      "outputs": [
        {
          "name": "swapId",
          "type": "uint256"
        },
        {
          "name": "openingTime",
          "type": "uint256"
        },
        {
          "name": "startingTime",
          "type": "uint256"
        },
        {
          "name": "endingTime",
          "type": "uint256"
        },
        {
          "name": "startingRate",
          "type": "uint256"
        },
        {
          "name": "endingRate",
          "type": "uint256"
        },
        {
          "name": "depositedValue",
          "type": "uint256"
        },
        {
          "name": "status",
          "type": "uint8"
        }
      ],
      "payable": false,
      "stateMutability": "view",
      "type": "function"
    },
    {
      "constant": true,
      "inputs": [],
      "name": "token",
      "outputs": [
        {
          "name": "",
          "type": "address"
        }
      ],
      "payable": false,
      "stateMutability": "view",
      "type": "function"
    },
    {
      "anonymous": false,
      "inputs": [
        {
          "indexed": true,
          "name": "to",
          "type": "address"
        },
        {
          "indexed": false,
          "name": "value",
          "type": "uint256"
        }
      ],
      "name": "Transfer",
      "type": "event"
    },
    {
      "constant": false,
      "inputs": [
        {
          "name": "_token",
          "type": "address"
        },
        {
          "name": "_cherryToken",
          "type": "address"
        },
        {
          "name": "_swapMath",
          "type": "address"
        }
      ],
      "name": "initialize",
      "outputs": [],
      "payable": false,
      "stateMutability": "nonpayable",
      "type": "function"
    },
    {
      "constant": false,
      "inputs": [
        {
          "name": "_startingTime",
          "type": "uint256"
        },
        {
          "name": "_endingTime",
          "type": "uint256"
        }
      ],
      "name": "createSwap",
      "outputs": [],
      "payable": false,
      "stateMutability": "nonpayable",
      "type": "function"
    },
    {
      "constant": false,
      "inputs": [],
      "name": "startSwap",
      "outputs": [],
      "payable": false,
      "stateMutability": "nonpayable",
      "type": "function"
    },
    {
      "constant": false,
      "inputs": [],
      "name": "closeSwap",
      "outputs": [],
      "payable": false,
      "stateMutability": "nonpayable",
      "type": "function"
    },
    {
      "constant": false,
      "inputs": [
        {
          "name": "_participant",
          "type": "address"
        },
        {
          "name": "_depositedValue",
          "type": "uint256"
        },
        {
          "name": "_uintBet",
          "type": "uint8"
        }
      ],
      "name": "deposit",
      "outputs": [],
      "payable": false,
      "stateMutability": "nonpayable",
      "type": "function"
    }
  ],
  "bytecode": "0x6080604052600060335534801561001557600080fd5b50612a3f806100256000396000f3006080604052600436106100af576000357c0100000000000000000000000000000000000000000000000000000000900463ffffffff168063084b1390146100b45780634b605a341461010b57806360b867b414610136578063b2ce99b414610185578063c0c53b8b146101dc578063c992b5b21461025f578063f09c582914610276578063f19ed6be146102f6578063fc0c546a14610350578063fdb2f02b146103a7578063fea9b8bf146103de575b600080fd5b3480156100c057600080fd5b506100c96103f5565b604051808273ffffffffffffffffffffffffffffffffffffffff1673ffffffffffffffffffffffffffffffffffffffff16815260200191505060405180910390f35b34801561011757600080fd5b5061012061041b565b6040518082815260200191505060405180910390f35b34801561014257600080fd5b5061016160048036038101908080359060200190929190505050610421565b60405180848152602001838152602001828152602001935050505060405180910390f35b34801561019157600080fd5b5061019a61044b565b604051808273ffffffffffffffffffffffffffffffffffffffff1673ffffffffffffffffffffffffffffffffffffffff16815260200191505060405180910390f35b3480156101e857600080fd5b5061025d600480360381019080803573ffffffffffffffffffffffffffffffffffffffff169060200190929190803573ffffffffffffffffffffffffffffffffffffffff169060200190929190803573ffffffffffffffffffffffffffffffffffffffff169060200190929190505050610471565b005b34801561026b57600080fd5b50610274610811565b005b34801561028257600080fd5b506102a160048036038101908080359060200190929190505050610d69565b604051808981526020018881526020018781526020018681526020018581526020018481526020018381526020018260028111156102db57fe5b60ff1681526020019850505050505050505060405180910390f35b34801561030257600080fd5b5061034e600480360381019080803573ffffffffffffffffffffffffffffffffffffffff16906020019092919080359060200190929190803560ff169060200190929190505050610dcd565b005b34801561035c57600080fd5b506103656112f5565b604051808273ffffffffffffffffffffffffffffffffffffffff1673ffffffffffffffffffffffffffffffffffffffff16815260200191505060405180910390f35b3480156103b357600080fd5b506103dc600480360381019080803590602001909291908035906020019092919050505061131b565b005b3480156103ea57600080fd5b506103f3611659565b005b603560009054906101000a900473ffffffffffffffffffffffffffffffffffffffff1681565b60335481565b60386020528060005260406000206000915090508060020154908060030154908060040154905083565b603660009054906101000a900473ffffffffffffffffffffffffffffffffffffffff1681565b60008060019054906101000a900460ff16806104915750610490611fd9565b5b806104a857506000809054906101000a900460ff16155b1515610542576040517f08c379a000000000000000000000000000000000000000000000000000000000815260040180806020018281038252602e8152602001807f436f6e747261637420696e7374616e63652068617320616c726561647920626581526020017f656e20696e697469616c697a656400000000000000000000000000000000000081525060400191505060405180910390fd5b600060019054906101000a900460ff161590508015610591576001600060016101000a81548160ff02191690831515021790555060016000806101000a81548160ff0219169083151502179055505b600073ffffffffffffffffffffffffffffffffffffffff168473ffffffffffffffffffffffffffffffffffffffff161415151561065c576040517f08c379a000000000000000000000000000000000000000000000000000000000815260040180806020018281038252602a8152602001807f436865727279737761703a3a636f6e74727563746f72202d20746f6b656e206381526020017f616e6e6f7420626520300000000000000000000000000000000000000000000081525060400191505060405180910390fd5b600073ffffffffffffffffffffffffffffffffffffffff168373ffffffffffffffffffffffffffffffffffffffff1614151515610727576040517f08c379a00000000000000000000000000000000000000000000000000000000081526004018080602001828103825260318152602001807f436865727279737761703a3a636f6e7374727563746f72202d2063686572727981526020017f546f6b656e2063616e6e6f74206265203000000000000000000000000000000081525060400191505060405180910390fd5b83603460006101000a81548173ffffffffffffffffffffffffffffffffffffffff021916908373ffffffffffffffffffffffffffffffffffffffff16021790555082603560006101000a81548173ffffffffffffffffffffffffffffffffffffffff021916908373ffffffffffffffffffffffffffffffffffffffff16021790555081603660006101000a81548173ffffffffffffffffffffffffffffffffffffffff021916908373ffffffffffffffffffffffffffffffffffffffff160217905550801561080b5760008060016101000a81548160ff0219169083151502179055505b50505050565b61081961276d565b6000603354111515610893576040517f08c379a000000000000000000000000000000000000000000000000000000000815260040180806020018281038252601f8152602001807f436865727279737761703a3a737461727453776170202d206e6f20737761700081525060200191505060405180910390fd5b60376001603354038154811015156108a757fe5b90600052602060002090600802016101006040519081016040529081600082015481526020016001820154815260200160028201548152602001600382015481526020016004820154815260200160058201548152602001600682015481526020016007820160009054906101000a900460ff16600281111561092657fe5b600281111561093157fe5b815250509050806040015142111515156109d9576040517f08c379a00000000000000000000000000000000000000000000000000000000081526004018080602001828103825260318152602001807f436865727279737761703a3a737461727453776170202d20737761702069732081526020017f72756e6e696e67206f7220636c6f73656400000000000000000000000000000081525060400191505060405180910390fd5b603460009054906101000a900473ffffffffffffffffffffffffffffffffffffffff1673ffffffffffffffffffffffffffffffffffffffff1663095ea7b3603560009054906101000a900473ffffffffffffffffffffffffffffffffffffffff166037600160335403815481101515610a4e57fe5b9060005260206000209060080201600601546040518363ffffffff167c0100000000000000000000000000000000000000000000000000000000028152600401808373ffffffffffffffffffffffffffffffffffffffff1673ffffffffffffffffffffffffffffffffffffffff16815260200182815260200192505050602060405180830381600087803b158015610ae557600080fd5b505af1158015610af9573d6000803e3d6000fd5b505050506040513d6020811015610b0f57600080fd5b8101908080519060200190929190505050506000603560009054906101000a900473ffffffffffffffffffffffffffffffffffffffff1673ffffffffffffffffffffffffffffffffffffffff1663a0712d686037600160335403815481101515610b7557fe5b9060005260206000209060080201600601546040518263ffffffff167c010000000000000000000000000000000000000000000000000000000002815260040180828152602001915050602060405180830381600087803b158015610bd957600080fd5b505af1158015610bed573d6000803e3d6000fd5b505050506040513d6020811015610c0357600080fd5b8101908080519060200190929190505050141515610c1d57fe5b60016037600160335403815481101515610c3357fe5b906000526020600020906008020160070160006101000a81548160ff02191690836002811115610c5f57fe5b0217905550670de0b6b3a764000062201480603560009054906101000a900473ffffffffffffffffffffffffffffffffffffffff1673ffffffffffffffffffffffffffffffffffffffff1663ae9d70b06040518163ffffffff167c0100000000000000000000000000000000000000000000000000000000028152600401602060405180830381600087803b158015610cf757600080fd5b505af1158015610d0b573d6000803e3d6000fd5b505050506040513d6020811015610d2157600080fd5b810190808051906020019092919050505002811515610d3c57fe5b046037600160335403815481101515610d5157fe5b90600052602060002090600802016004018190555050565b603781815481101515610d7857fe5b90600052602060002090600802016000915090508060000154908060010154908060020154908060030154908060040154908060050154908060060154908060070160009054906101000a900460ff16905088565b6000806000603354111515610e4a576040517f08c379a000000000000000000000000000000000000000000000000000000000815260040180806020018281038252601d8152602001807f436865727279737761703a3a6465706f736974202d206e6f207377617000000081525060200191505060405180910390fd5b6037600160335403815481101515610e5e57fe5b90600052602060002090600802019150816002015442101515610f0f576040517f08c379a000000000000000000000000000000000000000000000000000000000815260040180806020018281038252602f8152602001807f436865727279737761703a3a6465706f736974202d207377617020697320727581526020017f6e6e696e67206f7220636c6f736564000000000000000000000000000000000081525060400191505060405180910390fd5b600073ffffffffffffffffffffffffffffffffffffffff168573ffffffffffffffffffffffffffffffffffffffff1614151515610fb4576040517f08c379a000000000000000000000000000000000000000000000000000000000815260040180806020018281038252601b8152602001807f496e76616c6964207061727469636970616e742061646472657373000000000081525060200191505060405180910390fd5b603460009054906101000a900473ffffffffffffffffffffffffffffffffffffffff1673ffffffffffffffffffffffffffffffffffffffff166323b872dd8630876040518463ffffffff167c0100000000000000000000000000000000000000000000000000000000028152600401808473ffffffffffffffffffffffffffffffffffffffff1673ffffffffffffffffffffffffffffffffffffffff1681526020018373ffffffffffffffffffffffffffffffffffffffff1673ffffffffffffffffffffffffffffffffffffffff1681526020018281526020019350505050602060405180830381600087803b1580156110ad57600080fd5b505af11580156110c1573d6000803e3d6000fd5b505050506040513d60208110156110d757600080fd5b81019080805190602001909291905050501515611182576040517f08c379a00000000000000000000000000000000000000000000000000000000081526004018080602001828103825260338152602001807f436865727279737761703a3a6465706f736974202d206465706f73697420746f81526020017f6b656e207472616e73666572206661696c65640000000000000000000000000081525060400191505060405180910390fd5b6038600060016033540381526020019081526020016000209050806000018590806001815401808255809150509060018203906000526020600020016000909192909190916101000a81548173ffffffffffffffffffffffffffffffffffffffff021916908373ffffffffffffffffffffffffffffffffffffffff1602179055505080600101849080600181540180825580915050906001820390600052602060002001600090919290919091505550806005018360ff16600181111561124557fe5b908060018154018082558091505090600182039060005260206000209060209182820401919006909192909190916101000a81548160ff0219169083600181111561128c57fe5b02179055505060018360ff1614156112b5578381600201600082825401925050819055506112c8565b8381600301600082825401925050819055505b80600401600081548092919060010191905055508382600601600082825401925050819055505050505050565b603460009054906101000a900473ffffffffffffffffffffffffffffffffffffffff1681565b61132361276d565b61132b61276d565b60608060606113386127be565b6000603354111561148957603760016033540381548110151561135757fe5b90600052602060002090600802016101006040519081016040529081600082015481526020016001820154815260200160028201548152602001600382015481526020016004820154815260200160058201548152602001600682015481526020016007820160009054906101000a900460ff1660028111156113d657fe5b60028111156113e157fe5b815250509550856060015142111515611488576040517f08c379a00000000000000000000000000000000000000000000000000000000081526004018080602001828103825260298152602001807f436865727279737761703a3a686173456e646564202d2073776170206e6f742081526020017f656e64656420796574000000000000000000000000000000000000000000000081525060400191505060405180910390fd5b5b6001603360008282540192505081905550610100604051908101604052806001603354038152602001428152602001898152602001888152602001600081526020016000815260200160008152602001600060028111156114e657fe5b815250945060378590806001815401808255809150509060018203906000526020600020906008020160009091929091909150600082015181600001556020820151816001015560408201518160020155606082015181600301556080820151816004015560a0820151816005015560c0820151816006015560e08201518160070160006101000a81548160ff0219169083600281111561158357fe5b021790555050505060c0604051908101604052808581526020018481526020016000815260200160008152602001600081526020018381525090508060386000600160335403815260200190815260200160002060008201518160000190805190602001906115f39291906127f5565b50602082015181600101908051906020019061161092919061287f565b5060408201518160020155606082015181600301556080820151816004015560a082015181600501908051906020019061164b9291906128cc565b509050505050505050505050565b61166161276d565b600061166b6127be565b60008060006033541115156116e8576040517f08c379a000000000000000000000000000000000000000000000000000000000815260040180806020018281038252601f8152602001807f436865727279737761703a3a636c6f736553776170202d206e6f20737761700081525060200191505060405180910390fd5b60376001603354038154811015156116fc57fe5b90600052602060002090600802016101006040519081016040529081600082015481526020016001820154815260200160028201548152602001600382015481526020016004820154815260200160058201548152602001600682015481526020016007820160009054906101000a900460ff16600281111561177b57fe5b600281111561178657fe5b8152505094508460600151421015151561182e576040517f08c379a000000000000000000000000000000000000000000000000000000000815260040180806020018281038252602a8152602001807f436865727279737761703a3a636c6f736553776170202d2073776170206e6f7481526020017f20656e646564207965740000000000000000000000000000000000000000000081525060400191505060405180910390fd5b6002603760016033540381548110151561184457fe5b906000526020600020906008020160070160006101000a81548160ff0219169083600281111561187057fe5b0217905550670de0b6b3a764000062201480603560009054906101000a900473ffffffffffffffffffffffffffffffffffffffff1673ffffffffffffffffffffffffffffffffffffffff1663ae9d70b06040518163ffffffff167c0100000000000000000000000000000000000000000000000000000000028152600401602060405180830381600087803b15801561190857600080fd5b505af115801561191c573d6000803e3d6000fd5b505050506040513d602081101561193257600080fd5b81019080805190602001909291905050500281151561194d57fe5b04603760016033540381548110151561196257fe5b906000526020600020906008020160050181905550603560009054906101000a900473ffffffffffffffffffffffffffffffffffffffff1673ffffffffffffffffffffffffffffffffffffffff166370a08231306040518263ffffffff167c0100000000000000000000000000000000000000000000000000000000028152600401808273ffffffffffffffffffffffffffffffffffffffff1673ffffffffffffffffffffffffffffffffffffffff168152602001915050602060405180830381600087803b158015611a3457600080fd5b505af1158015611a48573d6000803e3d6000fd5b505050506040513d6020811015611a5e57600080fd5b810190808051906020019092919050505093506000603560009054906101000a900473ffffffffffffffffffffffffffffffffffffffff1673ffffffffffffffffffffffffffffffffffffffff1663db006a75866040518263ffffffff167c010000000000000000000000000000000000000000000000000000000002815260040180828152602001915050602060405180830381600087803b158015611b0457600080fd5b505af1158015611b18573d6000803e3d6000fd5b505050506040513d6020811015611b2e57600080fd5b8101908080519060200190929190505050141515611bda576040517f08c379a00000000000000000000000000000000000000000000000000000000081526004018080602001828103825260298152602001807f436865727279737761703a3a72656465656d202d20736f6d657468696e67207781526020017f656e742077726f6e67000000000000000000000000000000000000000000000081525060400191505060405180910390fd5b60386000600160335403815260200190815260200160002060c0604051908101604052908160008201805480602002602001604051908101604052809291908181526020018280548015611c8357602002820191906000526020600020905b8160009054906101000a900473ffffffffffffffffffffffffffffffffffffffff1673ffffffffffffffffffffffffffffffffffffffff1681526020019060010190808311611c39575b5050505050815260200160018201805480602002602001604051908101604052809291908181526020018280548015611cdb57602002820191906000526020600020905b815481526020019060010190808311611cc7575b5050505050815260200160028201548152602001600382015481526020016004820154815260200160058201805480602002602001604051908101604052809291908181526020018280548015611d7f57602002820191906000526020600020906000905b82829054906101000a900460ff166001811115611d5957fe5b81526020019060010190602082600001049283019260010382029150808411611d405790505b5050505050815250509250603660009054906101000a900473ffffffffffffffffffffffffffffffffffffffff1673ffffffffffffffffffffffffffffffffffffffff16630f45fedf84604001518560600151603560009054906101000a900473ffffffffffffffffffffffffffffffffffffffff1673ffffffffffffffffffffffffffffffffffffffff1663ae9d70b06040518163ffffffff167c0100000000000000000000000000000000000000000000000000000000028152600401602060405180830381600087803b158015611e5857600080fd5b505af1158015611e6c573d6000803e3d6000fd5b505050506040513d6020811015611e8257600080fd5b81019080805190602001909291905050506037600160335403815481101515611ea757fe5b9060005260206000209060080201600201546037600160335403815481101515611ecd57fe5b9060005260206000209060080201600301546037600160335403815481101515611ef357fe5b9060005260206000209060080201600601546040518763ffffffff167c01000000000000000000000000000000000000000000000000000000000281526004018087815260200186815260200185815260200184815260200183815260200182815260200196505050505050506040805180830381600087803b158015611f7957600080fd5b505af1158015611f8d573d6000803e3d6000fd5b505050506040513d6040811015611fa357600080fd5b81019080805190602001909291908051906020019092919050505091509150611fd282600f0b82600f0b611fea565b5050505050565b600080303b90506000811491505090565b611ff261276d565b6000806000611fff6127be565b60008060335411151561207a576040517f08c379a000000000000000000000000000000000000000000000000000000000815260040180806020018281038252601e8152602001807f436865727279737761703a3a7472616e73666572202d206e6f2073776170000081525060200191505060405180910390fd5b603760016033540381548110151561208e57fe5b90600052602060002090600802016101006040519081016040529081600082015481526020016001820154815260200160028201548152602001600382015481526020016004820154815260200160058201548152602001600682015481526020016007820160009054906101000a900460ff16600281111561210d57fe5b600281111561211857fe5b815250509550856060015142101515156121c0576040517f08c379a00000000000000000000000000000000000000000000000000000000081526004018080602001828103825260298152602001807f436865727279737761703a3a7472616e73666572202d2073776170206e6f742081526020017f656e64656420796574000000000000000000000000000000000000000000000081525060400191505060405180910390fd5b603460009054906101000a900473ffffffffffffffffffffffffffffffffffffffff1673ffffffffffffffffffffffffffffffffffffffff166370a08231306040518263ffffffff167c0100000000000000000000000000000000000000000000000000000000028152600401808273ffffffffffffffffffffffffffffffffffffffff1673ffffffffffffffffffffffffffffffffffffffff168152602001915050602060405180830381600087803b15801561227d57600080fd5b505af1158015612291573d6000803e3d6000fd5b505050506040513d60208110156122a757600080fd5b8101908080519060200190929190505050925060386000600160335403815260200190815260200160002060c060405190810160405290816000820180548060200260200160405190810160405280929190818152602001828054801561236357602002820191906000526020600020905b8160009054906101000a900473ffffffffffffffffffffffffffffffffffffffff1673ffffffffffffffffffffffffffffffffffffffff1681526020019060010190808311612319575b50505050508152602001600182018054806020026020016040519081016040528092919081815260200182805480156123bb57602002820191906000526020600020905b8154815260200190600101908083116123a7575b505050505081526020016002820154815260200160038201548152602001600482015481526020016005820180548060200260200160405190810160405280929190818152602001828054801561245f57602002820191906000526020600020906000905b82829054906101000a900460ff16600181111561243957fe5b815260200190600101906020826000010492830192600103820291508084116124205790505b5050505050815250509150600090505b8160800151811015612763576000600181111561248857fe5b8260a001518281518110151561249a57fe5b9060200190602002015160018111156124af57fe5b141561254557878260200151828151811015156124c857fe5b90602001906020020151029450670de0b6b3a76400008260200151828151811015156124f057fe5b9060200190602002015189028760c00151670de0b6b3a764000085602001518581518110151561251c57fe5b906020019060200201510281151561253057fe5b0485020181151561253d57fe5b0593506125d1565b8682602001518281518110151561255857fe5b90602001906020020151029450670de0b6b3a764000082602001518281518110151561258057fe5b9060200190602002015188028760c00151670de0b6b3a76400008560200151858151811015156125ac57fe5b90602001906020020151028115156125c057fe5b048502018115156125cd57fe5b0593505b603460009054906101000a900473ffffffffffffffffffffffffffffffffffffffff1673ffffffffffffffffffffffffffffffffffffffff1663a9059cbb83600001518381518110151561262157fe5b90602001906020020151866040518363ffffffff167c0100000000000000000000000000000000000000000000000000000000028152600401808373ffffffffffffffffffffffffffffffffffffffff1673ffffffffffffffffffffffffffffffffffffffff16815260200182815260200192505050602060405180830381600087803b1580156126b157600080fd5b505af11580156126c5573d6000803e3d6000fd5b505050506040513d60208110156126db57600080fd5b8101908080519060200190929190505050508160000151818151811015156126ff57fe5b9060200190602002015173ffffffffffffffffffffffffffffffffffffffff167f69ca02dd4edd7bf0a4abb9ed3b7af3f14778db5d61921c7dc7cd545266326de2856040518082815260200191505060405180910390a2808060010191505061246f565b5050505050505050565b6101006040519081016040528060008152602001600081526020016000815260200160008152602001600081526020016000815260200160008152602001600060028111156127b857fe5b81525090565b60c0604051908101604052806060815260200160608152602001600081526020016000815260200160008152602001606081525090565b82805482825590600052602060002090810192821561286e579160200282015b8281111561286d5782518260006101000a81548173ffffffffffffffffffffffffffffffffffffffff021916908373ffffffffffffffffffffffffffffffffffffffff16021790555091602001919060010190612815565b5b50905061287b919061297b565b5090565b8280548282559060005260206000209081019282156128bb579160200282015b828111156128ba57825182559160200191906001019061289f565b5b5090506128c891906129be565b5090565b82805482825590600052602060002090601f0160209004810192821561296a5791602002820160005b8382111561293b57835183826101000a81548160ff0219169083600181111561291a57fe5b021790555092602001926001016020816000010492830192600103026128f5565b80156129685782816101000a81549060ff021916905560010160208160000104928301926001030261293b565b505b50905061297791906129e3565b5090565b6129bb91905b808211156129b757600081816101000a81549073ffffffffffffffffffffffffffffffffffffffff021916905550600101612981565b5090565b90565b6129e091905b808211156129dc5760008160009055506001016129c4565b5090565b90565b612a1091905b80821115612a0c57600081816101000a81549060ff0219169055506001016129e9565b5090565b905600a165627a7a72305820f246c6d780e47b24c6f69ea60d14245d8a7418d99d242cfb14eead29d90e8cf30029",
  "source": "pragma solidity ^0.4.24;\n\nimport \"@openzeppelin/upgrades/contracts/Initializable.sol\";\n\nimport \"./interface/IERC20.sol\";\nimport \"./interface/ICERC20.sol\";\nimport \"./ISwapMath.sol\";\n\n\ncontract Cherryswap is Initializable {\n\n  /******************\n  INTERNAL ACCOUNTING\n  ******************/\n  uint256 constant blockPerYear = 2102400;\n  uint256 public swapsCounter = 0;\n\n  IERC20 public token; // underlying asset = DAI\n  ICERC20 public cherryToken; // cToken\n  ISwapMath public swapMath;\n\n  /***************\n  EVENTS\n  ***************/\n  event Transfer(address indexed to, uint256 value);\n\n  enum Status {\n    Open,\n    Running,\n    Closed\n  }\n\n  enum Bet {\n    Long,\n    Short\n  }\n\n  struct Swap {\n    uint256 swapId;\n    uint256 openingTime;\n    uint256 startingTime;\n    uint256 endingTime;\n    uint256 startingRate;\n    uint256 endingRate;\n    uint256 depositedValue;\n    Status status;\n  }\n\n  struct SwapInfo {\n    address[] participants;\n    uint256[] depositedValues;\n    uint256 longPoolSupply;\n    uint256 shortPoolSupply;\n    uint256 participantsCounter;\n    Bet[] bets;\n  }\n\n  Swap[] public swaps;\n  mapping (uint256 => SwapInfo) public swapById;\n\n  function initialize(\n    address _token,\n    address _cherryToken,\n    address _swapMath\n  ) public initializer {\n    require(_token != address(0), \"Cherryswap::contructor - token cannot be 0\");\n    require(_cherryToken != address(0), \"Cherryswap::constructor - cherryToken cannot be 0\");\n\n    token = IERC20(_token);\n    cherryToken = ICERC20(_cherryToken);\n    swapMath = ISwapMath(_swapMath);\n  }\n\n  function createSwap(\n    uint256 _startingTime,\n    uint256 _endingTime\n  ) public {\n    if(swapsCounter > 0) {\n      Swap memory previousSwap = swaps[swapsCounter-1];\n      require(now > previousSwap.endingTime, \"Cherryswap::hasEnded - swap not ended yet\");\n    }\n\n    // increment swaps counter\n    swapsCounter += 1;\n\n    // create new swap\n    Swap memory swap = Swap({\n      swapId: swapsCounter-1,\n      openingTime: now,\n      startingTime: _startingTime,\n      endingTime: _endingTime,\n      startingRate: 0,\n      endingRate: 0,\n      depositedValue: 0,\n      status: Status.Open\n    });\n    swaps.push(swap);\n\n    // create swap info\n    address[] memory _participants;\n    uint256[] memory _depositedValues;\n    Bet[] memory _bets;\n    SwapInfo memory swapInfo = SwapInfo(\n      _participants,\n      _depositedValues,\n      0,\n      0,\n      0,\n      _bets\n    );\n    swapById[swapsCounter-1] = swapInfo;\n  }\n\n  function startSwap() public {\n    require(swapsCounter > 0, \"Cherryswap::startSwap - no swap\");\n    Swap memory previousSwap = swaps[swapsCounter-1];\n    require(now <= previousSwap.startingTime, \"Cherryswap::startSwap - swap is running or closed\");\n\n    // approve the transfer\n    token.approve(address(cherryToken), swaps[swapsCounter-1].depositedValue);\n    // mint the cTokens and assert there is no error\n    assert(cherryToken.mint(swaps[swapsCounter-1].depositedValue) == 0);\n\n    swaps[swapsCounter-1].status = Status.Running;\n\n    // get starting rate\n    swaps[swapsCounter-1].startingRate = (cherryToken.supplyRatePerBlock() * blockPerYear) / 10**18;\n  }\n\n  function closeSwap() public {\n    require(swapsCounter > 0, \"Cherryswap::closeSwap - no swap\");\n    Swap memory previousSwap = swaps[swapsCounter-1];\n    require(now >= previousSwap.endingTime, \"Cherryswap::closeSwap - swap not ended yet\");\n\n    swaps[swapsCounter-1].status = Status.Closed;\n\n    // get starting rate\n    swaps[swapsCounter-1].endingRate = (cherryToken.supplyRatePerBlock() * blockPerYear) / 10**18;\n\n    uint256 cBalance = cherryToken.balanceOf(address(this));\n\n    // Redeem cDai to Dai\n    require(cherryToken.redeem(cBalance) == 0, \"Cherryswap::redeem - something went wrong\");\n\n    SwapInfo memory closedSwap = swapById[swapsCounter-1];\n    (int128 rLong, int128 rShort) = swapMath.computeRatios(\n      closedSwap.longPoolSupply,\n      closedSwap.shortPoolSupply,\n      cherryToken.supplyRatePerBlock(),\n      swaps[swapsCounter-1].startingTime,\n      swaps[swapsCounter-1].endingTime,\n      swaps[swapsCounter-1].depositedValue\n    );\n\n    // send funds to participants\n    transfer(rLong, rShort);\n  }\n\n  function deposit(\n    address _participant,\n    uint256 _depositedValue,\n    uint8 _uintBet\n  ) public {\n    require(swapsCounter > 0, \"Cherryswap::deposit - no swap\");\n    Swap storage currentSwap = swaps[swapsCounter-1];\n    require(now < currentSwap.startingTime, \"Cherryswap::deposit - swap is running or closed\");\n    require(_participant != address(0), \"Invalid participant address\");\n\n    // collect proposal deposit from proposer and store it in the Moloch until the proposal is processed\n    require(token.transferFrom(_participant, address(this), _depositedValue), \"Cherryswap::deposit - deposit token transfer failed\");\n    \n    SwapInfo storage swapInfo = swapById[swapsCounter-1];\n    swapInfo.participants.push(_participant);\n    swapInfo.depositedValues.push(_depositedValue);\n    swapInfo.bets.push(Bet(_uintBet));\n    if(_uintBet == 1) {\n      swapInfo.longPoolSupply += _depositedValue;\n    }\n    else {\n      swapInfo.shortPoolSupply += _depositedValue;\n    }\n    swapInfo.participantsCounter++;\n\n    currentSwap.depositedValue += _depositedValue;\n  }\n\n  function transfer(int256 rLong, int256 rShort) internal {\n    require(swapsCounter > 0, \"Cherryswap::transfer - no swap\");\n    Swap memory previousSwap = swaps[swapsCounter-1];\n    require(now >= previousSwap.endingTime, \"Cherryswap::transfer - swap not ended yet\");\n    \n    int256 pl;\n    int256 payout;\n\n    // contract DAI balance\n    uint256 pt = token.balanceOf(address(this));\n\n    SwapInfo memory endedSwap = swapById[swapsCounter-1];\n    for(uint256 i = 0; i < endedSwap.participantsCounter; i++) {\n      if(endedSwap.bets[i] == Bet.Long) {\n        pl = int256(endedSwap.depositedValues[i]) * rLong;\n        payout = (int256(pt) * int256(endedSwap.depositedValues[i] * 10 ** 18 / previousSwap.depositedValue) + (rLong * int256(endedSwap.depositedValues[i]))) / 10 ** 18;\n      }\n      else {\n        pl = int256(endedSwap.depositedValues[i]) * rShort;\n        payout = (int256(pt) * int256(endedSwap.depositedValues[i] * 10 ** 18 / previousSwap.depositedValue) + (rShort * int256(endedSwap.depositedValues[i]))) / 10 ** 18;\n      }\n      // transfer DAI to participant\n      token.transfer(endedSwap.participants[i], uint256(payout));\n      emit Transfer(endedSwap.participants[i], uint256(payout));\n    }\n  }\n\n}\n\n\n",
  "sourcePath": "/home/haythem96/Projects/Blockchain/Projects/NeapolitanSwaps/CherrySwap/contracts/Cherryswap.sol",
  "compiler": {
    "name": "solc",
    "version": "0.4.24+commit.e67f0147.Emscripten.clang"
  },
  "schemaVersion": "3.0.16",
  "updatedAt": "2019-10-23T08:27:51.340Z",
  "devdoc": {
    "methods": {}
  },
  "userdoc": {
    "methods": {}
  }
}