{
  "fileName": "Cherryswap.sol",
  "contractName": "Cherryswap",
  "source": "pragma solidity ^0.5.0;\n\nimport \"@openzeppelin/upgrades/contracts/Initializable.sol\";\n\nimport \"./interface/IERC20.sol\";\nimport \"./interface/ICERC20.sol\";\nimport \"./ISwapMath.sol\";\n\n\ncontract Cherryswap is Initializable {\n\n  /******************\n  INTERNAL ACCOUNTING\n  ******************/\n  uint256 constant blockPerYear = 2102400;\n  uint256 public swapsCounter = 0;\n\n  IERC20 public token; // underlying asset = DAI\n  ICERC20 public cherryToken; // cToken\n  ISwapMath public swapMath;\n\n  /***************\n  EVENTS\n  ***************/\n  event Transfer(address indexed to, uint256 value);\n\n  enum Status {\n    Open,\n    Running,\n    Closed\n  }\n\n  enum Bet {\n    Long,\n    Short\n  }\n\n  struct Swap {\n    uint256 swapId;\n    uint256 openingTime;\n    uint256 startingTime;\n    uint256 endingTime;\n    uint256 startingRate;\n    uint256 endingRate;\n    uint256 depositedValue;\n    Status status;\n  }\n\n  struct SwapInfo {\n    address[] participants;\n    uint256[] depositedValues;\n    uint256 longPoolSupply;\n    uint256 shortPoolSupply;\n    uint256 participantsCounter;\n    Bet[] bets;\n  }\n\n  Swap[] public swaps;\n  mapping (uint256 => SwapInfo) public swapById;\n\n  function initialize(\n    address _token,\n    address _cherryToken,\n    address _swapMath\n  ) public initializer {\n    require(_token != address(0), \"Cherryswap::contructor - token cannot be 0\");\n    require(_cherryToken != address(0), \"Cherryswap::constructor - cherryToken cannot be 0\");\n\n    token = IERC20(_token);\n    cherryToken = ICERC20(_cherryToken);\n    swapMath = ISwapMath(_swapMath);\n  }\n\n  function createSwap(\n    uint256 _startingTime,\n    uint256 _endingTime\n  ) public {\n    if(swapsCounter > 0) {\n      Swap memory previousSwap = swaps[swapsCounter-1];\n      require(now > previousSwap.endingTime, \"Cherryswap::hasEnded - swap not ended yet\");\n    }\n\n    // increment swaps counter\n    swapsCounter += 1;\n\n    // create new swap\n    Swap memory swap = Swap({\n      swapId: swapsCounter-1,\n      openingTime: now,\n      startingTime: _startingTime,\n      endingTime: _endingTime,\n      startingRate: 0,\n      endingRate: 0,\n      depositedValue: 0,\n      status: Status.Open\n    });\n    swaps.push(swap);\n\n    // create swap info\n    address[] memory _participants;\n    uint256[] memory _depositedValues;\n    Bet[] memory _bets;\n    SwapInfo memory swapInfo = SwapInfo(\n      _participants,\n      _depositedValues,\n      0,\n      0,\n      0,\n      _bets\n    );\n    swapById[swapsCounter-1] = swapInfo;\n  }\n\n  function startSwap() public {\n    require(swapsCounter > 0, \"Cherryswap::startSwap - no swap\");\n    Swap memory previousSwap = swaps[swapsCounter-1];\n    require(now <= previousSwap.startingTime, \"Cherryswap::startSwap - swap is running or closed\");\n\n    // approve the transfer\n    token.approve(address(cherryToken), swaps[swapsCounter-1].depositedValue);\n    // mint the cTokens and assert there is no error\n    assert(cherryToken.mint(swaps[swapsCounter-1].depositedValue) == 0);\n\n    swaps[swapsCounter-1].status = Status.Running;\n\n    // get starting rate\n    swaps[swapsCounter-1].startingRate = (cherryToken.supplyRatePerBlock() * blockPerYear) / 10**18;\n  }\n\n  function closeSwap() public {\n    require(swapsCounter > 0, \"Cherryswap::closeSwap - no swap\");\n    Swap memory previousSwap = swaps[swapsCounter-1];\n    require(now >= previousSwap.endingTime, \"Cherryswap::closeSwap - swap not ended yet\");\n\n    swaps[swapsCounter-1].status = Status.Closed;\n\n    // get starting rate\n    swaps[swapsCounter-1].endingRate = (cherryToken.supplyRatePerBlock() * blockPerYear) / 10**18;\n\n    uint256 cBalance = cherryToken.balanceOf(address(this));\n\n    // Redeem cDai to Dai\n    require(cherryToken.redeem(cBalance) == 0, \"Cherryswap::redeem - something went wrong\");\n\n    SwapInfo memory closedSwap = swapById[swapsCounter-1];\n    (int128 rLong, int128 rShort) = swapMath.computeRatios(\n      closedSwap.longPoolSupply,\n      closedSwap.shortPoolSupply,\n      cherryToken.supplyRatePerBlock(),\n      swaps[swapsCounter-1].startingTime,\n      swaps[swapsCounter-1].endingTime,\n      swaps[swapsCounter-1].depositedValue\n    );\n\n    // send funds to participants\n    transfer(rLong, rShort);\n  }\n\n  function deposit(\n    address _participant,\n    uint256 _depositedValue,\n    uint8 _uintBet\n  ) public {\n    require(swapsCounter > 0, \"Cherryswap::deposit - no swap\");\n    Swap storage currentSwap = swaps[swapsCounter-1];\n    require(now < currentSwap.startingTime, \"Cherryswap::deposit - swap is running or closed\");\n    require(_participant != address(0), \"Invalid participant address\");\n\n    // collect proposal deposit from proposer and store it in the Moloch until the proposal is processed\n    require(token.transferFrom(_participant, address(this), _depositedValue), \"Cherryswap::deposit - deposit token transfer failed\");\n    \n    SwapInfo storage swapInfo = swapById[swapsCounter-1];\n    swapInfo.participants.push(_participant);\n    swapInfo.depositedValues.push(_depositedValue);\n    swapInfo.bets.push(Bet(_uintBet));\n    if(_uintBet == 1) {\n      swapInfo.longPoolSupply += _depositedValue;\n    }\n    else {\n      swapInfo.shortPoolSupply += _depositedValue;\n    }\n    swapInfo.participantsCounter++;\n\n    currentSwap.depositedValue += _depositedValue;\n  }\n\n  function transfer(int256 rLong, int256 rShort) internal {\n    require(swapsCounter > 0, \"Cherryswap::transfer - no swap\");\n    Swap memory previousSwap = swaps[swapsCounter-1];\n    require(now >= previousSwap.endingTime, \"Cherryswap::transfer - swap not ended yet\");\n    \n    int256 pl;\n    int256 payout;\n\n    // contract DAI balance\n    uint256 pt = token.balanceOf(address(this));\n\n    SwapInfo memory endedSwap = swapById[swapsCounter-1];\n    for(uint256 i = 0; i < endedSwap.participantsCounter; i++) {\n      if(endedSwap.bets[i] == Bet.Long) {\n        pl = int256(endedSwap.depositedValues[i]) * rLong;\n        payout = (int256(pt) * int256(endedSwap.depositedValues[i] * 10 ** 18 / previousSwap.depositedValue) + (rLong * int256(endedSwap.depositedValues[i]))) / 10 ** 18;\n      }\n      else {\n        pl = int256(endedSwap.depositedValues[i]) * rShort;\n        payout = (int256(pt) * int256(endedSwap.depositedValues[i] * 10 ** 18 / previousSwap.depositedValue) + (rShort * int256(endedSwap.depositedValues[i]))) / 10 ** 18;\n      }\n      // transfer DAI to participant\n      token.transfer(endedSwap.participants[i], uint256(payout));\n      emit Transfer(endedSwap.participants[i], uint256(payout));\n    }\n  }\n\n}\n\n\n",
  "sourcePath": "contracts/Cherryswap.sol",
  "abi": [
    {
      "anonymous": false,
      "inputs": [
        {
          "indexed": true,
          "internalType": "address",
          "name": "to",
          "type": "address"
        },
        {
          "indexed": false,
          "internalType": "uint256",
          "name": "value",
          "type": "uint256"
        }
      ],
      "name": "Transfer",
      "type": "event"
    },
    {
      "constant": true,
      "inputs": [],
      "name": "cherryToken",
      "outputs": [
        {
          "internalType": "contract ICERC20",
          "name": "",
          "type": "address"
        }
      ],
      "payable": false,
      "stateMutability": "view",
      "type": "function"
    },
    {
      "constant": false,
      "inputs": [],
      "name": "closeSwap",
      "outputs": [],
      "payable": false,
      "stateMutability": "nonpayable",
      "type": "function"
    },
    {
      "constant": false,
      "inputs": [
        {
          "internalType": "uint256",
          "name": "_startingTime",
          "type": "uint256"
        },
        {
          "internalType": "uint256",
          "name": "_endingTime",
          "type": "uint256"
        }
      ],
      "name": "createSwap",
      "outputs": [],
      "payable": false,
      "stateMutability": "nonpayable",
      "type": "function"
    },
    {
      "constant": false,
      "inputs": [
        {
          "internalType": "address",
          "name": "_participant",
          "type": "address"
        },
        {
          "internalType": "uint256",
          "name": "_depositedValue",
          "type": "uint256"
        },
        {
          "internalType": "uint8",
          "name": "_uintBet",
          "type": "uint8"
        }
      ],
      "name": "deposit",
      "outputs": [],
      "payable": false,
      "stateMutability": "nonpayable",
      "type": "function"
    },
    {
      "constant": false,
      "inputs": [
        {
          "internalType": "address",
          "name": "_token",
          "type": "address"
        },
        {
          "internalType": "address",
          "name": "_cherryToken",
          "type": "address"
        },
        {
          "internalType": "address",
          "name": "_swapMath",
          "type": "address"
        }
      ],
      "name": "initialize",
      "outputs": [],
      "payable": false,
      "stateMutability": "nonpayable",
      "type": "function"
    },
    {
      "constant": false,
      "inputs": [],
      "name": "startSwap",
      "outputs": [],
      "payable": false,
      "stateMutability": "nonpayable",
      "type": "function"
    },
    {
      "constant": true,
      "inputs": [
        {
          "internalType": "uint256",
          "name": "",
          "type": "uint256"
        }
      ],
      "name": "swapById",
      "outputs": [
        {
          "internalType": "uint256",
          "name": "longPoolSupply",
          "type": "uint256"
        },
        {
          "internalType": "uint256",
          "name": "shortPoolSupply",
          "type": "uint256"
        },
        {
          "internalType": "uint256",
          "name": "participantsCounter",
          "type": "uint256"
        }
      ],
      "payable": false,
      "stateMutability": "view",
      "type": "function"
    },
    {
      "constant": true,
      "inputs": [],
      "name": "swapMath",
      "outputs": [
        {
          "internalType": "contract ISwapMath",
          "name": "",
          "type": "address"
        }
      ],
      "payable": false,
      "stateMutability": "view",
      "type": "function"
    },
    {
      "constant": true,
      "inputs": [
        {
          "internalType": "uint256",
          "name": "",
          "type": "uint256"
        }
      ],
      "name": "swaps",
      "outputs": [
        {
          "internalType": "uint256",
          "name": "swapId",
          "type": "uint256"
        },
        {
          "internalType": "uint256",
          "name": "openingTime",
          "type": "uint256"
        },
        {
          "internalType": "uint256",
          "name": "startingTime",
          "type": "uint256"
        },
        {
          "internalType": "uint256",
          "name": "endingTime",
          "type": "uint256"
        },
        {
          "internalType": "uint256",
          "name": "startingRate",
          "type": "uint256"
        },
        {
          "internalType": "uint256",
          "name": "endingRate",
          "type": "uint256"
        },
        {
          "internalType": "uint256",
          "name": "depositedValue",
          "type": "uint256"
        },
        {
          "internalType": "enum Cherryswap.Status",
          "name": "status",
          "type": "uint8"
        }
      ],
      "payable": false,
      "stateMutability": "view",
      "type": "function"
    },
    {
      "constant": true,
      "inputs": [],
      "name": "swapsCounter",
      "outputs": [
        {
          "internalType": "uint256",
          "name": "",
          "type": "uint256"
        }
      ],
      "payable": false,
      "stateMutability": "view",
      "type": "function"
    },
    {
      "constant": true,
      "inputs": [],
      "name": "token",
      "outputs": [
        {
          "internalType": "contract IERC20",
          "name": "",
          "type": "address"
        }
      ],
      "payable": false,
      "stateMutability": "view",
      "type": "function"
    }
  ],
  "bytecode": "0x60806040526000603360005090905534801561001b5760006000fd5b50610021565b612a46806100306000396000f3fe60806040523480156100115760006000fd5b50600436106100ae5760003560e01c8063c992b5b211610072578063c992b5b21461023c578063f09c582914610246578063f19ed6be146102c8578063fc0c546a14610324578063fdb2f02b1461036e578063fea9b8bf146103a7576100ae565b8063084b1390146100b45780634b605a34146100fe57806360b867b41461011c578063b2ce99b41461016d578063c0c53b8b146101b7576100ae565b60006000fd5b6100bc6103b1565b604051808273ffffffffffffffffffffffffffffffffffffffff1673ffffffffffffffffffffffffffffffffffffffff16815260200191505060405180910390f35b6101066103d7565b6040518082815260200191505060405180910390f35b610149600480360360208110156101335760006000fd5b81019080803590602001909291905050506103e0565b60405180848152602001838152602001828152602001935050505060405180910390f35b610175610416565b604051808273ffffffffffffffffffffffffffffffffffffffff1673ffffffffffffffffffffffffffffffffffffffff16815260200191505060405180910390f35b61023a600480360360608110156101ce5760006000fd5b81019080803573ffffffffffffffffffffffffffffffffffffffff169060200190929190803573ffffffffffffffffffffffffffffffffffffffff169060200190929190803573ffffffffffffffffffffffffffffffffffffffff16906020019092919050505061043c565b005b61024461071f565b005b6102736004803603602081101561025d5760006000fd5b8101908080359060200190929190505050610c44565b604051808981526020018881526020018781526020018681526020018581526020018481526020018381526020018260028111156102ad57fe5b60ff1681526020019850505050505050505060405180910390f35b610322600480360360608110156102df5760006000fd5b81019080803573ffffffffffffffffffffffffffffffffffffffff16906020019092919080359060200190929190803560ff169060200190929190505050610cc1565b005b61032c61118b565b604051808273ffffffffffffffffffffffffffffffffffffffff1673ffffffffffffffffffffffffffffffffffffffff16815260200191505060405180910390f35b6103a5600480360360408110156103855760006000fd5b8101908080359060200190929190803590602001909291905050506111b1565b005b6103af611525565b005b603560009054906101000a900473ffffffffffffffffffffffffffffffffffffffff1681565b60336000505481565b60386000506020528060005260406000206000915090508060020160005054908060030160005054908060040160005054905083565b603660009054906101000a900473ffffffffffffffffffffffffffffffffffffffff1681565b600060019054906101000a900460ff16806104615750610460611e2e63ffffffff16565b5b806104795750600060009054906101000a900460ff16155b15156104d0576040517f08c379a000000000000000000000000000000000000000000000000000000000815260040180806020018281038252602e815260200180612903602e913960400191505060405180910390fd5b6000600060019054906101000a900460ff161590508015610522576001600060016101000a81548160ff0219169083151502179055506001600060006101000a81548160ff0219169083151502179055505b600073ffffffffffffffffffffffffffffffffffffffff168473ffffffffffffffffffffffffffffffffffffffff16141515156105aa576040517f08c379a000000000000000000000000000000000000000000000000000000000815260040180806020018281038252602a815260200180612964602a913960400191505060405180910390fd5b600073ffffffffffffffffffffffffffffffffffffffff168373ffffffffffffffffffffffffffffffffffffffff1614151515610632576040517f08c379a00000000000000000000000000000000000000000000000000000000081526004018080602001828103825260318152602001806128516031913960400191505060405180910390fd5b83603460006101000a81548173ffffffffffffffffffffffffffffffffffffffff021916908373ffffffffffffffffffffffffffffffffffffffff16021790555082603560006101000a81548173ffffffffffffffffffffffffffffffffffffffff021916908373ffffffffffffffffffffffffffffffffffffffff16021790555081603660006101000a81548173ffffffffffffffffffffffffffffffffffffffff021916908373ffffffffffffffffffffffffffffffffffffffff1602179055505b8015610718576000600060016101000a81548160ff0219169083151502179055505b505b505050565b600060336000505411151561079f576040517f08c379a000000000000000000000000000000000000000000000000000000000815260040180806020018281038252601f8152602001807f436865727279737761703a3a737461727453776170202d206e6f20737761700081526020015060200191505060405180910390fd5b6107a7612593565b60376000506001603360005054038154811015156107c157fe5b906000526020600020906008020160005b5060405180610100016040529081600082016000505481526020016001820160005054815260200160028201600050548152602001600382016000505481526020016004820160005054815260200160058201600050548152602001600682016000505481526020016007820160009054906101000a900460ff16600281111561085857fe5b600281111561086357fe5b815260200150509050806040015142111515156108cb576040517f08c379a000000000000000000000000000000000000000000000000000000000815260040180806020018281038252603181526020018061298e6031913960400191505060405180910390fd5b603460009054906101000a900473ffffffffffffffffffffffffffffffffffffffff1673ffffffffffffffffffffffffffffffffffffffff1663095ea7b3603560009054906101000a900473ffffffffffffffffffffffffffffffffffffffff16603760005060016033600050540381548110151561094657fe5b906000526020600020906008020160005b50600601600050546040518363ffffffff1660e01b8152600401808373ffffffffffffffffffffffffffffffffffffffff1673ffffffffffffffffffffffffffffffffffffffff16815260200182815260200192505050602060405180830381600087803b1580156109c95760006000fd5b505af11580156109de573d600060003e3d6000fd5b505050506040513d60208110156109f55760006000fd5b8101908080519060200190929190505050506000603560009054906101000a900473ffffffffffffffffffffffffffffffffffffffff1673ffffffffffffffffffffffffffffffffffffffff1663a0712d686037600050600160336000505403815481101515610a6157fe5b906000526020600020906008020160005b50600601600050546040518263ffffffff1660e01b815260040180828152602001915050602060405180830381600087803b158015610ab15760006000fd5b505af1158015610ac6573d600060003e3d6000fd5b505050506040513d6020811015610add5760006000fd5b8101908080519060200190929190505050141515610af757fe5b60016037600050600160336000505403815481101515610b1357fe5b906000526020600020906008020160005b5060070160006101000a81548160ff02191690836002811115610b4357fe5b0217905550670de0b6b3a764000062201480603560009054906101000a900473ffffffffffffffffffffffffffffffffffffffff1673ffffffffffffffffffffffffffffffffffffffff1663ae9d70b06040518163ffffffff1660e01b8152600401602060405180830381600087803b158015610bc05760006000fd5b505af1158015610bd5573d600060003e3d6000fd5b505050506040513d6020811015610bec5760006000fd5b810190808051906020019092919050505002811515610c0757fe5b046037600050600160336000505403815481101515610c2257fe5b906000526020600020906008020160005b50600401600050819090905550505b565b603760005081815481101515610c5657fe5b906000526020600020906008020160005b915090508060000160005054908060010160005054908060020160005054908060030160005054908060040160005054908060050160005054908060060160005054908060070160009054906101000a900460ff16905088565b6000603360005054111515610d41576040517f08c379a000000000000000000000000000000000000000000000000000000000815260040180806020018281038252601d8152602001807f436865727279737761703a3a6465706f736974202d206e6f207377617000000081526020015060200191505060405180910390fd5b60006037600050600160336000505403815481101515610d5d57fe5b906000526020600020906008020160005b509050806002016000505442101515610dd2576040517f08c379a000000000000000000000000000000000000000000000000000000000815260040180806020018281038252602f815260200180612882602f913960400191505060405180910390fd5b600073ffffffffffffffffffffffffffffffffffffffff168473ffffffffffffffffffffffffffffffffffffffff1614151515610e7a576040517f08c379a000000000000000000000000000000000000000000000000000000000815260040180806020018281038252601b8152602001807f496e76616c6964207061727469636970616e742061646472657373000000000081526020015060200191505060405180910390fd5b603460009054906101000a900473ffffffffffffffffffffffffffffffffffffffff1673ffffffffffffffffffffffffffffffffffffffff166323b872dd8530866040518463ffffffff1660e01b8152600401808473ffffffffffffffffffffffffffffffffffffffff1673ffffffffffffffffffffffffffffffffffffffff1681526020018373ffffffffffffffffffffffffffffffffffffffff1673ffffffffffffffffffffffffffffffffffffffff1681526020018281526020019350505050602060405180830381600087803b158015610f585760006000fd5b505af1158015610f6d573d600060003e3d6000fd5b505050506040513d6020811015610f845760006000fd5b81019080805190602001909291905050501515610fec576040517f08c379a00000000000000000000000000000000000000000000000000000000081526004018080602001828103825260338152602001806129316033913960400191505060405180910390fd5b60006038600050600060016033600050540381526020019081526020016000206000509050806000016000508590806001815401808255809150509060018203906000526020600020900160005b909192909190916101000a81548173ffffffffffffffffffffffffffffffffffffffff021916908373ffffffffffffffffffffffffffffffffffffffff16021790555050806001016000508490806001815401808255809150509060018203906000526020600020900160005b909192909190915090905550806005016000508360ff1660018111156110c957fe5b9080600181540180825580915050906001820390600052602060002090602091828204019190065b909192909190916101000a81548160ff0219169083600181111561111157fe5b02179055505060018360ff16141561113e5783816002016000828282505401925050819090905550611155565b838160030160008282825054019250508190909055505b8060040160008181505480929190600101919050909055508382600601600082828250540192505081909090555050505b505050565b603460009054906101000a900473ffffffffffffffffffffffffffffffffffffffff1681565b600060336000505411156112ec576111c7612593565b60376000506001603360005054038154811015156111e157fe5b906000526020600020906008020160005b5060405180610100016040529081600082016000505481526020016001820160005054815260200160028201600050548152602001600382016000505481526020016004820160005054815260200160058201600050548152602001600682016000505481526020016007820160009054906101000a900460ff16600281111561127857fe5b600281111561128357fe5b8152602001505090508060600151421115156112ea576040517f08c379a00000000000000000000000000000000000000000000000000000000081526004018080602001828103825260298152602001806128da6029913960400191505060405180910390fd5b505b600160336000828282505401925050819090905550611309612593565b60405180610100016040528060016033600050540381526020014281526020018481526020018381526020016000815260200160008152602001600081526020016000600281111561135757fe5b815260200150905060376000508190806001815401808255809150509060018203906000526020600020906008020160005b909192909190915060008201518160000160005090905560208201518160010160005090905560408201518160020160005090905560608201518160030160005090905560808201518160040160005090905560a08201518160050160005090905560c08201518160060160005090905560e08201518160070160006101000a81548160ff0219169083600281111561141e57fe5b02179055505050506060606060606114346125e6565b6040518060c001604052808581526020018481526020016000815260200160008152602001600081526020018381526020015090508060386000506000600160336000505403815260200190815260200160002060005060008201518160000160005090805190602001906114aa92919061261f565b5060208201518160010160005090805190602001906114ca9291906126a9565b5060408201518160020160005090905560608201518160030160005090905560808201518160040160005090905560a08201518160050160005090805190602001906115179291906126fb565b5090505050505050505b5050565b60006033600050541115156115a5576040517f08c379a000000000000000000000000000000000000000000000000000000000815260040180806020018281038252601f8152602001807f436865727279737761703a3a636c6f736553776170202d206e6f20737761700081526020015060200191505060405180910390fd5b6115ad612593565b60376000506001603360005054038154811015156115c757fe5b906000526020600020906008020160005b5060405180610100016040529081600082016000505481526020016001820160005054815260200160028201600050548152602001600382016000505481526020016004820160005054815260200160058201600050548152602001600682016000505481526020016007820160009054906101000a900460ff16600281111561165e57fe5b600281111561166957fe5b815260200150509050806060015142101515156116d1576040517f08c379a000000000000000000000000000000000000000000000000000000000815260040180806020018281038252602a8152602001806129e8602a913960400191505060405180910390fd5b600260376000506001603360005054038154811015156116ed57fe5b906000526020600020906008020160005b5060070160006101000a81548160ff0219169083600281111561171d57fe5b0217905550670de0b6b3a764000062201480603560009054906101000a900473ffffffffffffffffffffffffffffffffffffffff1673ffffffffffffffffffffffffffffffffffffffff1663ae9d70b06040518163ffffffff1660e01b8152600401602060405180830381600087803b15801561179a5760006000fd5b505af11580156117af573d600060003e3d6000fd5b505050506040513d60208110156117c65760006000fd5b8101908080519060200190929190505050028115156117e157fe5b0460376000506001603360005054038154811015156117fc57fe5b906000526020600020906008020160005b506005016000508190909055506000603560009054906101000a900473ffffffffffffffffffffffffffffffffffffffff1673ffffffffffffffffffffffffffffffffffffffff166370a08231306040518263ffffffff1660e01b8152600401808273ffffffffffffffffffffffffffffffffffffffff1673ffffffffffffffffffffffffffffffffffffffff16815260200191505060206040518083038186803b1580156118bc5760006000fd5b505afa1580156118d1573d600060003e3d6000fd5b505050506040513d60208110156118e85760006000fd5b810190808051906020019092919050505090506000603560009054906101000a900473ffffffffffffffffffffffffffffffffffffffff1673ffffffffffffffffffffffffffffffffffffffff1663db006a75836040518263ffffffff1660e01b815260040180828152602001915050602060405180830381600087803b1580156119735760006000fd5b505af1158015611988573d600060003e3d6000fd5b505050506040513d602081101561199f5760006000fd5b8101908080519060200190929190505050141515611a08576040517f08c379a00000000000000000000000000000000000000000000000000000000081526004018080602001828103825260298152602001806128b16029913960400191505060405180910390fd5b611a106125e6565b6038600050600060016033600050540381526020019081526020016000206000506040518060c001604052908160008201600050805480602002602001604051908101604052809291908181526020018280548015611ac457602002820191906000526020600020905b8160009054906101000a900473ffffffffffffffffffffffffffffffffffffffff1673ffffffffffffffffffffffffffffffffffffffff1681526020019060010190808311611a7a575b5050505050815260200160018201600050805480602002602001604051908101604052809291908181526020018280548015611b2257602002820191906000526020600020905b816000505481526020019060010190808311611b0b575b5050505050815260200160028201600050548152602001600382016000505481526020016004820160005054815260200160058201600050805480602002602001604051908101604052809291908181526020018280548015611bd257602002820191906000526020600020906000905b82829054906101000a900460ff166001811115611bac57fe5b81526020019060010190602082600001049283019260010382029150808411611b935790505b505050505081526020015050905060006000603660009054906101000a900473ffffffffffffffffffffffffffffffffffffffff1673ffffffffffffffffffffffffffffffffffffffff16630f45fedf84604001518560600151603560009054906101000a900473ffffffffffffffffffffffffffffffffffffffff1673ffffffffffffffffffffffffffffffffffffffff1663ae9d70b06040518163ffffffff1660e01b8152600401602060405180830381600087803b158015611c975760006000fd5b505af1158015611cac573d600060003e3d6000fd5b505050506040513d6020811015611cc35760006000fd5b81019080805190602001909291905050506037600050600160336000505403815481101515611cee57fe5b906000526020600020906008020160005b50600201600050546037600050600160336000505403815481101515611d2157fe5b906000526020600020906008020160005b50600301600050546037600050600160336000505403815481101515611d5457fe5b906000526020600020906008020160005b50600601600050546040518763ffffffff1660e01b815260040180878152602001868152602001858152602001848152602001838152602001828152602001965050505050505060406040518083038186803b158015611dc55760006000fd5b505afa158015611dda573d600060003e3d6000fd5b505050506040513d6040811015611df15760006000fd5b81019080805190602001909291908051906020019092919050505091509150611e2682600f0b82600f0b611e4663ffffffff16565b50505050505b565b60006000303b905060008114915050611e4356505b90565b6000603360005054111515611ec6576040517f08c379a000000000000000000000000000000000000000000000000000000000815260040180806020018281038252601e8152602001807f436865727279737761703a3a7472616e73666572202d206e6f2073776170000081526020015060200191505060405180910390fd5b611ece612593565b6037600050600160336000505403815481101515611ee857fe5b906000526020600020906008020160005b5060405180610100016040529081600082016000505481526020016001820160005054815260200160028201600050548152602001600382016000505481526020016004820160005054815260200160058201600050548152602001600682016000505481526020016007820160009054906101000a900460ff166002811115611f7f57fe5b6002811115611f8a57fe5b81526020015050905080606001514210151515611ff2576040517f08c379a00000000000000000000000000000000000000000000000000000000081526004018080602001828103825260298152602001806129bf6029913960400191505060405180910390fd5b600060006000603460009054906101000a900473ffffffffffffffffffffffffffffffffffffffff1673ffffffffffffffffffffffffffffffffffffffff166370a08231306040518263ffffffff1660e01b8152600401808273ffffffffffffffffffffffffffffffffffffffff1673ffffffffffffffffffffffffffffffffffffffff16815260200191505060206040518083038186803b1580156120985760006000fd5b505afa1580156120ad573d600060003e3d6000fd5b505050506040513d60208110156120c45760006000fd5b810190808051906020019092919050505090506120df6125e6565b6038600050600060016033600050540381526020019081526020016000206000506040518060c00160405290816000820160005080548060200260200160405190810160405280929190818152602001828054801561219357602002820191906000526020600020905b8160009054906101000a900473ffffffffffffffffffffffffffffffffffffffff1673ffffffffffffffffffffffffffffffffffffffff1681526020019060010190808311612149575b50505050508152602001600182016000508054806020026020016040519081016040528092919081815260200182805480156121f157602002820191906000526020600020905b8160005054815260200190600101908083116121da575b50505050508152602001600282016000505481526020016003820160005054815260200160048201600050548152602001600582016000508054806020026020016040519081016040528092919081815260200182805480156122a157602002820191906000526020600020906000905b82829054906101000a900460ff16600181111561227b57fe5b815260200190600101906020826000010492830192600103820291508084116122625790505b50505050508152602001505090506000600090505b816080015181101561258857600060018111156122cf57fe5b8260a00151828151811015156122e157fe5b602002602001015160018111156122f457fe5b1415612388578782602001518281518110151561230d57fe5b60200260200101510294508450670de0b6b3a764000082602001518281518110151561233557fe5b602002602001015189028760c00151670de0b6b3a764000085602001518581518110151561235f57fe5b60200260200101510281151561237157fe5b0485020181151561237e57fe5b0593508350612412565b8682602001518281518110151561239b57fe5b60200260200101510294508450670de0b6b3a76400008260200151828151811015156123c357fe5b602002602001015188028760c00151670de0b6b3a76400008560200151858151811015156123ed57fe5b6020026020010151028115156123ff57fe5b0485020181151561240c57fe5b05935083505b603460009054906101000a900473ffffffffffffffffffffffffffffffffffffffff1673ffffffffffffffffffffffffffffffffffffffff1663a9059cbb83600001518381518110151561246257fe5b6020026020010151866040518363ffffffff1660e01b8152600401808373ffffffffffffffffffffffffffffffffffffffff1673ffffffffffffffffffffffffffffffffffffffff16815260200182815260200192505050602060405180830381600087803b1580156124d55760006000fd5b505af11580156124ea573d600060003e3d6000fd5b505050506040513d60208110156125015760006000fd5b81019080805190602001909291905050505081600001518181518110151561252557fe5b602002602001015173ffffffffffffffffffffffffffffffffffffffff167f69ca02dd4edd7bf0a4abb9ed3b7af3f14778db5d61921c7dc7cd545266326de2856040518082815260200191505060405180910390a25b80806001019150506122b6565b5050505050505b5050565b60405180610100016040528060008152602001600081526020016000815260200160008152602001600081526020016000815260200160008152602001600060028111156125dd57fe5b81526020015090565b6040518060c001604052806060815260200160608152602001600081526020016000815260200160008152602001606081526020015090565b828054828255906000526020600020908101928215612698579160200282015b828111156126975782518260006101000a81548173ffffffffffffffffffffffffffffffffffffffff021916908373ffffffffffffffffffffffffffffffffffffffff1602179055509160200191906001019061263f565b5b5090506126a591906127aa565b5090565b8280548282559060005260206000209081019282156126ea579160200282015b828111156126e957825182600050909055916020019190600101906126c9565b5b5090506126f791906127f1565b5090565b82805482825590600052602060002090601f016020900481019282156127995791602002820160005b8382111561276a57835183826101000a81548160ff0219169083600181111561274957fe5b02179055509260200192600101602081600001049283019260010302612724565b80156127975782816101000a81549060ff021916905560010160208160000104928301926001030261276a565b505b5090506127a6919061281c565b5090565b6127ee91906127b4565b808211156127ea57600081816101000a81549073ffffffffffffffffffffffffffffffffffffffff0219169055506001016127b4565b5090565b90565b61281991906127fb565b8082111561281557600081815060009055506001016127fb565b5090565b90565b61284d9190612826565b8082111561284957600081816101000a81549060ff021916905550600101612826565b5090565b9056fe436865727279737761703a3a636f6e7374727563746f72202d20636865727279546f6b656e2063616e6e6f742062652030436865727279737761703a3a6465706f736974202d20737761702069732072756e6e696e67206f7220636c6f736564436865727279737761703a3a72656465656d202d20736f6d657468696e672077656e742077726f6e67436865727279737761703a3a686173456e646564202d2073776170206e6f7420656e64656420796574436f6e747261637420696e7374616e63652068617320616c7265616479206265656e20696e697469616c697a6564436865727279737761703a3a6465706f736974202d206465706f73697420746f6b656e207472616e73666572206661696c6564436865727279737761703a3a636f6e74727563746f72202d20746f6b656e2063616e6e6f742062652030436865727279737761703a3a737461727453776170202d20737761702069732072756e6e696e67206f7220636c6f736564436865727279737761703a3a7472616e73666572202d2073776170206e6f7420656e64656420796574436865727279737761703a3a636c6f736553776170202d2073776170206e6f7420656e64656420796574a265627a7a723158205c79eaa1a8342d43c2b78dbe0f470b30f1dd113cd224cbafce475efe7ca772fb64736f6c634300050c0032",
  "compiler": {
    "name": "solc",
    "version": "0.5.12+commit.7709ece9.Emscripten.clang",
    "optimizer": {},
    "evmVersion": "constantinople"
  }
}