{
  "contractName": "SolidityTest",
  "abi": [
    {
      "constant": true,
      "inputs": [],
      "name": "swapMath",
      "outputs": [
        {
          "name": "",
          "type": "address"
        }
      ],
      "payable": false,
      "stateMutability": "view",
      "type": "function"
    },
    {
      "inputs": [
        {
          "name": "swapMathAddress",
          "type": "address"
        }
      ],
      "payable": false,
      "stateMutability": "nonpayable",
      "type": "constructor"
    },
    {
      "constant": true,
      "inputs": [],
      "name": "get",
      "outputs": [
        {
          "name": "",
          "type": "uint256"
        }
      ],
      "payable": false,
      "stateMutability": "view",
      "type": "function"
    },
    {
      "constant": false,
      "inputs": [],
      "name": "getVyper",
      "outputs": [
        {
          "name": "",
          "type": "uint256"
        }
      ],
      "payable": false,
      "stateMutability": "nonpayable",
      "type": "function"
    }
  ],
  "bytecode": "0x608060405234801561001057600080fd5b506040516020806102628339810180604052602081101561003057600080fd5b8101908080519060200190929190505050806000806101000a81548173ffffffffffffffffffffffffffffffffffffffff021916908373ffffffffffffffffffffffffffffffffffffffff160217905550506101d1806100916000396000f3fe608060405234801561001057600080fd5b50600436106100415760003560e01c80630663773d146100465780636d4ce63c14610064578063b2ce99b414610082575b600080fd5b61004e6100cc565b6040518082815260200191505060405180910390f35b61006c610177565b6040518082815260200191505060405180910390f35b61008a610180565b604051808273ffffffffffffffffffffffffffffffffffffffff1673ffffffffffffffffffffffffffffffffffffffff16815260200191505060405180910390f35b60008060009054906101000a900473ffffffffffffffffffffffffffffffffffffffff1673ffffffffffffffffffffffffffffffffffffffff16637d3688736040518163ffffffff1660e01b8152600401602060405180830381600087803b15801561013757600080fd5b505af115801561014b573d6000803e3d6000fd5b505050506040513d602081101561016157600080fd5b8101908080519060200190929190505050905090565b6000600b905090565b6000809054906101000a900473ffffffffffffffffffffffffffffffffffffffff168156fea165627a7a723058209d2761799cc06b0a64be8f6d625593a896e3916f4ea2e21478edf674fd6d09570029",
  "source": "pragma solidity 0.5.8;\n\nimport './ISwapMath.sol';\ncontract SolidityTest {\nISwapMath public swapMath;\n    constructor(address swapMathAddress) public{\n       swapMath = ISwapMath(swapMathAddress);\n    }\n    \n    function get() public view returns (uint256) {\n        return 11;\n    }\n\n    function getVyper() public returns (uint256) {\n        return swapMath.getnum();\n    }\n}",
  "sourcePath": "/Users/chris/Projects/CherrySwap/contracts/SolidityTest.sol",
  "compiler": {
    "name": "solc",
    "version": "0.5.8+commit.23d335f2.Emscripten.clang"
  },
  "schemaVersion": "3.0.11",
  "updatedAt": "2019-08-23T22:09:29.103Z",
  "devdoc": {
    "methods": {}
  },
  "userdoc": {
    "methods": {}
  }
}